{
  "_format": "hh-sol-artifact-1",
  "contractName": "SkullNFT",
  "sourceName": "contracts/SkullNFT.sol",
  "abi": [
    {
      "inputs": [
        {
          "internalType": "string",
          "name": "_baseTokenURI",
          "type": "string"
        }
      ],
      "stateMutability": "nonpayable",
      "type": "constructor"
    },
    {
      "inputs": [],
      "name": "ERC721EnumerableForbiddenBatchMint",
      "type": "error"
    },
    {
      "inputs": [
        {
          "internalType": "address",
          "name": "sender",
          "type": "address"
        },
        {
          "internalType": "uint256",
          "name": "tokenId",
          "type": "uint256"
        },
        {
          "internalType": "address",
          "name": "owner",
          "type": "address"
        }
      ],
      "name": "ERC721IncorrectOwner",
      "type": "error"
    },
    {
      "inputs": [
        {
          "internalType": "address",
          "name": "operator",
          "type": "address"
        },
        {
          "internalType": "uint256",
          "name": "tokenId",
          "type": "uint256"
        }
      ],
      "name": "ERC721InsufficientApproval",
      "type": "error"
    },
    {
      "inputs": [
        {
          "internalType": "address",
          "name": "approver",
          "type": "address"
        }
      ],
      "name": "ERC721InvalidApprover",
      "type": "error"
    },
    {
      "inputs": [
        {
          "internalType": "address",
          "name": "operator",
          "type": "address"
        }
      ],
      "name": "ERC721InvalidOperator",
      "type": "error"
    },
    {
      "inputs": [
        {
          "internalType": "address",
          "name": "owner",
          "type": "address"
        }
      ],
      "name": "ERC721InvalidOwner",
      "type": "error"
    },
    {
      "inputs": [
        {
          "internalType": "address",
          "name": "receiver",
          "type": "address"
        }
      ],
      "name": "ERC721InvalidReceiver",
      "type": "error"
    },
    {
      "inputs": [
        {
          "internalType": "address",
          "name": "sender",
          "type": "address"
        }
      ],
      "name": "ERC721InvalidSender",
      "type": "error"
    },
    {
      "inputs": [
        {
          "internalType": "uint256",
          "name": "tokenId",
          "type": "uint256"
        }
      ],
      "name": "ERC721NonexistentToken",
      "type": "error"
    },
    {
      "inputs": [
        {
          "internalType": "address",
          "name": "owner",
          "type": "address"
        },
        {
          "internalType": "uint256",
          "name": "index",
          "type": "uint256"
        }
      ],
      "name": "ERC721OutOfBoundsIndex",
      "type": "error"
    },
    {
      "inputs": [
        {
          "internalType": "address",
          "name": "owner",
          "type": "address"
        }
      ],
      "name": "OwnableInvalidOwner",
      "type": "error"
    },
    {
      "inputs": [
        {
          "internalType": "address",
          "name": "account",
          "type": "address"
        }
      ],
      "name": "OwnableUnauthorizedAccount",
      "type": "error"
    },
    {
      "anonymous": false,
      "inputs": [
        {
          "indexed": true,
          "internalType": "address",
          "name": "owner",
          "type": "address"
        },
        {
          "indexed": true,
          "internalType": "address",
          "name": "approved",
          "type": "address"
        },
        {
          "indexed": true,
          "internalType": "uint256",
          "name": "tokenId",
          "type": "uint256"
        }
      ],
      "name": "Approval",
      "type": "event"
    },
    {
      "anonymous": false,
      "inputs": [
        {
          "indexed": true,
          "internalType": "address",
          "name": "owner",
          "type": "address"
        },
        {
          "indexed": true,
          "internalType": "address",
          "name": "operator",
          "type": "address"
        },
        {
          "indexed": false,
          "internalType": "bool",
          "name": "approved",
          "type": "bool"
        }
      ],
      "name": "ApprovalForAll",
      "type": "event"
    },
    {
      "anonymous": false,
      "inputs": [
        {
          "indexed": true,
          "internalType": "address",
          "name": "previousOwner",
          "type": "address"
        },
        {
          "indexed": true,
          "internalType": "address",
          "name": "newOwner",
          "type": "address"
        }
      ],
      "name": "OwnershipTransferred",
      "type": "event"
    },
    {
      "anonymous": false,
      "inputs": [
        {
          "indexed": true,
          "internalType": "address",
          "name": "from",
          "type": "address"
        },
        {
          "indexed": true,
          "internalType": "address",
          "name": "to",
          "type": "address"
        },
        {
          "indexed": true,
          "internalType": "uint256",
          "name": "tokenId",
          "type": "uint256"
        }
      ],
      "name": "Transfer",
      "type": "event"
    },
    {
      "inputs": [
        {
          "internalType": "address",
          "name": "to",
          "type": "address"
        },
        {
          "internalType": "uint256",
          "name": "tokenId",
          "type": "uint256"
        }
      ],
      "name": "approve",
      "outputs": [],
      "stateMutability": "nonpayable",
      "type": "function"
    },
    {
      "inputs": [
        {
          "internalType": "address",
          "name": "owner",
          "type": "address"
        }
      ],
      "name": "balanceOf",
      "outputs": [
        {
          "internalType": "uint256",
          "name": "",
          "type": "uint256"
        }
      ],
      "stateMutability": "view",
      "type": "function"
    },
    {
      "inputs": [
        {
          "internalType": "uint256",
          "name": "tokenId",
          "type": "uint256"
        }
      ],
      "name": "getApproved",
      "outputs": [
        {
          "internalType": "address",
          "name": "",
          "type": "address"
        }
      ],
      "stateMutability": "view",
      "type": "function"
    },
    {
      "inputs": [
        {
          "internalType": "address",
          "name": "owner",
          "type": "address"
        },
        {
          "internalType": "address",
          "name": "operator",
          "type": "address"
        }
      ],
      "name": "isApprovedForAll",
      "outputs": [
        {
          "internalType": "bool",
          "name": "",
          "type": "bool"
        }
      ],
      "stateMutability": "view",
      "type": "function"
    },
    {
      "inputs": [
        {
          "internalType": "address",
          "name": "to",
          "type": "address"
        }
      ],
      "name": "mint",
      "outputs": [],
      "stateMutability": "nonpayable",
      "type": "function"
    },
    {
      "inputs": [],
      "name": "name",
      "outputs": [
        {
          "internalType": "string",
          "name": "",
          "type": "string"
        }
      ],
      "stateMutability": "view",
      "type": "function"
    },
    {
      "inputs": [],
      "name": "nextTokenId",
      "outputs": [
        {
          "internalType": "uint256",
          "name": "",
          "type": "uint256"
        }
      ],
      "stateMutability": "view",
      "type": "function"
    },
    {
      "inputs": [],
      "name": "owner",
      "outputs": [
        {
          "internalType": "address",
          "name": "",
          "type": "address"
        }
      ],
      "stateMutability": "view",
      "type": "function"
    },
    {
      "inputs": [
        {
          "internalType": "uint256",
          "name": "tokenId",
          "type": "uint256"
        }
      ],
      "name": "ownerOf",
      "outputs": [
        {
          "internalType": "address",
          "name": "",
          "type": "address"
        }
      ],
      "stateMutability": "view",
      "type": "function"
    },
    {
      "inputs": [],
      "name": "renounceOwnership",
      "outputs": [],
      "stateMutability": "nonpayable",
      "type": "function"
    },
    {
      "inputs": [
        {
          "internalType": "address",
          "name": "from",
          "type": "address"
        },
        {
          "internalType": "address",
          "name": "to",
          "type": "address"
        },
        {
          "internalType": "uint256",
          "name": "tokenId",
          "type": "uint256"
        }
      ],
      "name": "safeTransferFrom",
      "outputs": [],
      "stateMutability": "nonpayable",
      "type": "function"
    },
    {
      "inputs": [
        {
          "internalType": "address",
          "name": "from",
          "type": "address"
        },
        {
          "internalType": "address",
          "name": "to",
          "type": "address"
        },
        {
          "internalType": "uint256",
          "name": "tokenId",
          "type": "uint256"
        },
        {
          "internalType": "bytes",
          "name": "data",
          "type": "bytes"
        }
      ],
      "name": "safeTransferFrom",
      "outputs": [],
      "stateMutability": "nonpayable",
      "type": "function"
    },
    {
      "inputs": [
        {
          "internalType": "address",
          "name": "operator",
          "type": "address"
        },
        {
          "internalType": "bool",
          "name": "approved",
          "type": "bool"
        }
      ],
      "name": "setApprovalForAll",
      "outputs": [],
      "stateMutability": "nonpayable",
      "type": "function"
    },
    {
      "inputs": [
        {
          "internalType": "string",
          "name": "newBaseURI",
          "type": "string"
        }
      ],
      "name": "setBaseURI",
      "outputs": [],
      "stateMutability": "nonpayable",
      "type": "function"
    },
    {
      "inputs": [
        {
          "internalType": "bytes4",
          "name": "interfaceId",
          "type": "bytes4"
        }
      ],
      "name": "supportsInterface",
      "outputs": [
        {
          "internalType": "bool",
          "name": "",
          "type": "bool"
        }
      ],
      "stateMutability": "view",
      "type": "function"
    },
    {
      "inputs": [],
      "name": "symbol",
      "outputs": [
        {
          "internalType": "string",
          "name": "",
          "type": "string"
        }
      ],
      "stateMutability": "view",
      "type": "function"
    },
    {
      "inputs": [
        {
          "internalType": "uint256",
          "name": "index",
          "type": "uint256"
        }
      ],
      "name": "tokenByIndex",
      "outputs": [
        {
          "internalType": "uint256",
          "name": "",
          "type": "uint256"
        }
      ],
      "stateMutability": "view",
      "type": "function"
    },
    {
      "inputs": [
        {
          "internalType": "address",
          "name": "owner",
          "type": "address"
        },
        {
          "internalType": "uint256",
          "name": "index",
          "type": "uint256"
        }
      ],
      "name": "tokenOfOwnerByIndex",
      "outputs": [
        {
          "internalType": "uint256",
          "name": "",
          "type": "uint256"
        }
      ],
      "stateMutability": "view",
      "type": "function"
    },
    {
      "inputs": [
        {
          "internalType": "uint256",
          "name": "tokenId",
          "type": "uint256"
        }
      ],
      "name": "tokenURI",
      "outputs": [
        {
          "internalType": "string",
          "name": "",
          "type": "string"
        }
      ],
      "stateMutability": "view",
      "type": "function"
    },
    {
      "inputs": [],
      "name": "totalSupply",
      "outputs": [
        {
          "internalType": "uint256",
          "name": "",
          "type": "uint256"
        }
      ],
      "stateMutability": "view",
      "type": "function"
    },
    {
      "inputs": [
        {
          "internalType": "address",
          "name": "from",
          "type": "address"
        },
        {
          "internalType": "address",
          "name": "to",
          "type": "address"
        },
        {
          "internalType": "uint256",
          "name": "tokenId",
          "type": "uint256"
        }
      ],
      "name": "transferFrom",
      "outputs": [],
      "stateMutability": "nonpayable",
      "type": "function"
    },
    {
      "inputs": [
        {
          "internalType": "address",
          "name": "newOwner",
          "type": "address"
        }
      ],
      "name": "transferOwnership",
      "outputs": [],
      "stateMutability": "nonpayable",
      "type": "function"
    }
  ],
  "bytecode": "0x608060405234801561001057600080fd5b5060405161331f38038061331f83398181016040528101906100329190610394565b336040518060400160405280600981526020017f536b756c6c204e465400000000000000000000000000000000000000000000008152506040518060400160405280600581526020017f534b554c4c00000000000000000000000000000000000000000000000000000081525081600090816100ae91906105fe565b5080600190816100be91906105fe565b505050600073ffffffffffffffffffffffffffffffffffffffff168173ffffffffffffffffffffffffffffffffffffffff16036101335760006040517f1e4fbdf700000000000000000000000000000000000000000000000000000000815260040161012a9190610711565b60405180910390fd5b6101428161015960201b60201c565b5080600c908161015291906105fe565b505061072c565b6000600a60009054906101000a900473ffffffffffffffffffffffffffffffffffffffff16905081600a60006101000a81548173ffffffffffffffffffffffffffffffffffffffff021916908373ffffffffffffffffffffffffffffffffffffffff1602179055508173ffffffffffffffffffffffffffffffffffffffff168173ffffffffffffffffffffffffffffffffffffffff167f8be0079c531659141344cd1fd0a4f28419497f9722a3daafe3b4186f6b6457e060405160405180910390a35050565b6000604051905090565b600080fd5b600080fd5b600080fd5b600080fd5b6000601f19601f8301169050919050565b7f4e487b7100000000000000000000000000000000000000000000000000000000600052604160045260246000fd5b6102868261023d565b810181811067ffffffffffffffff821117156102a5576102a461024e565b5b80604052505050565b60006102b861021f565b90506102c4828261027d565b919050565b600067ffffffffffffffff8211156102e4576102e361024e565b5b6102ed8261023d565b9050602081019050919050565b60005b838110156103185780820151818401526020810190506102fd565b60008484015250505050565b6000610337610332846102c9565b6102ae565b90508281526020810184848401111561035357610352610238565b5b61035e8482856102fa565b509392505050565b600082601f83011261037b5761037a610233565b5b815161038b848260208601610324565b91505092915050565b6000602082840312156103aa576103a9610229565b5b600082015167ffffffffffffffff8111156103c8576103c761022e565b5b6103d484828501610366565b91505092915050565b600081519050919050565b7f4e487b7100000000000000000000000000000000000000000000000000000000600052602260045260246000fd5b6000600282049050600182168061042f57607f821691505b602082108103610442576104416103e8565b5b50919050565b60008190508160005260206000209050919050565b60006020601f8301049050919050565b600082821b905092915050565b6000600883026104aa7fffffffffffffffffffffffffffffffffffffffffffffffffffffffffffffffff8261046d565b6104b4868361046d565b95508019841693508086168417925050509392505050565b6000819050919050565b6000819050919050565b60006104fb6104f66104f1846104cc565b6104d6565b6104cc565b9050919050565b6000819050919050565b610515836104e0565b61052961052182610502565b84845461047a565b825550505050565b600090565b61053e610531565b61054981848461050c565b505050565b5b8181101561056d57610562600082610536565b60018101905061054f565b5050565b601f8211156105b25761058381610448565b61058c8461045d565b8101602085101561059b578190505b6105af6105a78561045d565b83018261054e565b50505b505050565b600082821c905092915050565b60006105d5600019846008026105b7565b1980831691505092915050565b60006105ee83836105c4565b9150826002028217905092915050565b610607826103dd565b67ffffffffffffffff8111156106205761061f61024e565b5b61062a8254610417565b610635828285610571565b600060209050601f8311600181146106685760008415610656578287015190505b61066085826105e2565b8655506106c8565b601f19841661067686610448565b60005b8281101561069e57848901518255600182019150602085019450602081019050610679565b868310156106bb57848901516106b7601f8916826105c4565b8355505b6001600288020188555050505b505050505050565b600073ffffffffffffffffffffffffffffffffffffffff82169050919050565b60006106fb826106d0565b9050919050565b61070b816106f0565b82525050565b60006020820190506107266000830184610702565b92915050565b612be48061073b6000396000f3fe608060405234801561001057600080fd5b50600436106101425760003560e01c80636a627842116100b857806395d89b411161007c57806395d89b4114610375578063a22cb46514610393578063b88d4fde146103af578063c87b56dd146103cb578063e985e9c5146103fb578063f2fde38b1461042b57610142565b80636a627842146102e357806370a08231146102ff578063715018a61461032f57806375794a3c146103395780638da5cb5b1461035757610142565b806323b872dd1161010a57806323b872dd146101ff5780632f745c591461021b57806342842e0e1461024b5780634f6ccce71461026757806355f804b3146102975780636352211e146102b357610142565b806301ffc9a71461014757806306fdde0314610177578063081812fc14610195578063095ea7b3146101c557806318160ddd146101e1575b600080fd5b610161600480360381019061015c9190611fbd565b610447565b60405161016e9190612005565b60405180910390f35b61017f6104c1565b60405161018c91906120b0565b60405180910390f35b6101af60048036038101906101aa9190612108565b610553565b6040516101bc9190612176565b60405180910390f35b6101df60048036038101906101da91906121bd565b61056f565b005b6101e9610585565b6040516101f6919061220c565b60405180910390f35b61021960048036038101906102149190612227565b610592565b005b610235600480360381019061023091906121bd565b610694565b604051610242919061220c565b60405180910390f35b61026560048036038101906102609190612227565b61073d565b005b610281600480360381019061027c9190612108565b61075d565b60405161028e919061220c565b60405180910390f35b6102b160048036038101906102ac91906123af565b6107d3565b005b6102cd60048036038101906102c89190612108565b6107ee565b6040516102da9190612176565b60405180910390f35b6102fd60048036038101906102f891906123f8565b610800565b005b610319600480360381019061031491906123f8565b61082f565b604051610326919061220c565b60405180910390f35b6103376108e9565b005b6103416108fd565b60405161034e919061220c565b60405180910390f35b61035f610903565b60405161036c9190612176565b60405180910390f35b61037d61092d565b60405161038a91906120b0565b60405180910390f35b6103ad60048036038101906103a89190612451565b6109bf565b005b6103c960048036038101906103c49190612532565b6109d5565b005b6103e560048036038101906103e09190612108565b6109fa565b6040516103f291906120b0565b60405180910390f35b610415600480360381019061041091906125b5565b610a63565b6040516104229190612005565b60405180910390f35b610445600480360381019061044091906123f8565b610af7565b005b60007f780e9d63000000000000000000000000000000000000000000000000000000007bffffffffffffffffffffffffffffffffffffffffffffffffffffffff1916827bffffffffffffffffffffffffffffffffffffffffffffffffffffffff191614806104ba57506104b982610b7d565b5b9050919050565b6060600080546104d090612624565b80601f01602080910402602001604051908101604052809291908181526020018280546104fc90612624565b80156105495780601f1061051e57610100808354040283529160200191610549565b820191906000526020600020905b81548152906001019060200180831161052c57829003601f168201915b5050505050905090565b600061055e82610c5f565b5061056882610ce7565b9050919050565b610581828261057c610d24565b610d2c565b5050565b6000600880549050905090565b600073ffffffffffffffffffffffffffffffffffffffff168273ffffffffffffffffffffffffffffffffffffffff16036106045760006040517f64a0ae920000000000000000000000000000000000000000000000000000000081526004016105fb9190612176565b60405180910390fd5b60006106188383610613610d24565b610d3e565b90508373ffffffffffffffffffffffffffffffffffffffff168173ffffffffffffffffffffffffffffffffffffffff161461068e578382826040517f64283d7b00000000000000000000000000000000000000000000000000000000815260040161068593929190612655565b60405180910390fd5b50505050565b600061069f8361082f565b82106106e45782826040517fa57d13dc0000000000000000000000000000000000000000000000000000000081526004016106db92919061268c565b60405180910390fd5b600660008473ffffffffffffffffffffffffffffffffffffffff1673ffffffffffffffffffffffffffffffffffffffff168152602001908152602001600020600083815260200190815260200160002054905092915050565b610758838383604051806020016040528060008152506109d5565b505050565b6000610767610585565b82106107ad576000826040517fa57d13dc0000000000000000000000000000000000000000000000000000000081526004016107a492919061268c565b60405180910390fd5b600882815481106107c1576107c06126b5565b5b90600052602060002001549050919050565b6107db610e5b565b80600c90816107ea9190612890565b5050565b60006107f982610c5f565b9050919050565b610808610e5b565b61081481600b54610ee2565b600b600081548092919061082790612991565b919050555050565b60008073ffffffffffffffffffffffffffffffffffffffff168273ffffffffffffffffffffffffffffffffffffffff16036108a25760006040517f89c62b640000000000000000000000000000000000000000000000000000000081526004016108999190612176565b60405180910390fd5b600360008373ffffffffffffffffffffffffffffffffffffffff1673ffffffffffffffffffffffffffffffffffffffff168152602001908152602001600020549050919050565b6108f1610e5b565b6108fb6000610f00565b565b600b5481565b6000600a60009054906101000a900473ffffffffffffffffffffffffffffffffffffffff16905090565b60606001805461093c90612624565b80601f016020809104026020016040519081016040528092919081815260200182805461096890612624565b80156109b55780601f1061098a576101008083540402835291602001916109b5565b820191906000526020600020905b81548152906001019060200180831161099857829003601f168201915b5050505050905090565b6109d16109ca610d24565b8383610fc6565b5050565b6109e0848484610592565b6109f46109eb610d24565b85858585611135565b50505050565b6060610a0582610c5f565b506000610a106112e6565b90506000815111610a305760405180602001604052806000815250610a5b565b80610a3a84611378565b604051602001610a4b929190612a15565b6040516020818303038152906040525b915050919050565b6000600560008473ffffffffffffffffffffffffffffffffffffffff1673ffffffffffffffffffffffffffffffffffffffff16815260200190815260200160002060008373ffffffffffffffffffffffffffffffffffffffff1673ffffffffffffffffffffffffffffffffffffffff16815260200190815260200160002060009054906101000a900460ff16905092915050565b610aff610e5b565b600073ffffffffffffffffffffffffffffffffffffffff168173ffffffffffffffffffffffffffffffffffffffff1603610b715760006040517f1e4fbdf7000000000000000000000000000000000000000000000000000000008152600401610b689190612176565b60405180910390fd5b610b7a81610f00565b50565b60007f80ac58cd000000000000000000000000000000000000000000000000000000007bffffffffffffffffffffffffffffffffffffffffffffffffffffffff1916827bffffffffffffffffffffffffffffffffffffffffffffffffffffffff19161480610c4857507f5b5e139f000000000000000000000000000000000000000000000000000000007bffffffffffffffffffffffffffffffffffffffffffffffffffffffff1916827bffffffffffffffffffffffffffffffffffffffffffffffffffffffff1916145b80610c585750610c5782611446565b5b9050919050565b600080610c6b836114b0565b9050600073ffffffffffffffffffffffffffffffffffffffff168173ffffffffffffffffffffffffffffffffffffffff1603610cde57826040517f7e273289000000000000000000000000000000000000000000000000000000008152600401610cd5919061220c565b60405180910390fd5b80915050919050565b60006004600083815260200190815260200160002060009054906101000a900473ffffffffffffffffffffffffffffffffffffffff169050919050565b600033905090565b610d3983838360016114ed565b505050565b600080610d4c8585856116b2565b9050600073ffffffffffffffffffffffffffffffffffffffff168173ffffffffffffffffffffffffffffffffffffffff1603610d9057610d8b846118cc565b610dcf565b8473ffffffffffffffffffffffffffffffffffffffff168173ffffffffffffffffffffffffffffffffffffffff1614610dce57610dcd8185611915565b5b5b600073ffffffffffffffffffffffffffffffffffffffff168573ffffffffffffffffffffffffffffffffffffffff1603610e1157610e0c84611a00565b610e50565b8473ffffffffffffffffffffffffffffffffffffffff168173ffffffffffffffffffffffffffffffffffffffff1614610e4f57610e4e8585611ad1565b5b5b809150509392505050565b610e63610d24565b73ffffffffffffffffffffffffffffffffffffffff16610e81610903565b73ffffffffffffffffffffffffffffffffffffffff1614610ee057610ea4610d24565b6040517f118cdaa7000000000000000000000000000000000000000000000000000000008152600401610ed79190612176565b60405180910390fd5b565b610efc828260405180602001604052806000815250611b5c565b5050565b6000600a60009054906101000a900473ffffffffffffffffffffffffffffffffffffffff16905081600a60006101000a81548173ffffffffffffffffffffffffffffffffffffffff021916908373ffffffffffffffffffffffffffffffffffffffff1602179055508173ffffffffffffffffffffffffffffffffffffffff168173ffffffffffffffffffffffffffffffffffffffff167f8be0079c531659141344cd1fd0a4f28419497f9722a3daafe3b4186f6b6457e060405160405180910390a35050565b600073ffffffffffffffffffffffffffffffffffffffff168273ffffffffffffffffffffffffffffffffffffffff160361103757816040517f5b08ba1800000000000000000000000000000000000000000000000000000000815260040161102e9190612176565b60405180910390fd5b80600560008573ffffffffffffffffffffffffffffffffffffffff1673ffffffffffffffffffffffffffffffffffffffff16815260200190815260200160002060008473ffffffffffffffffffffffffffffffffffffffff1673ffffffffffffffffffffffffffffffffffffffff16815260200190815260200160002060006101000a81548160ff0219169083151502179055508173ffffffffffffffffffffffffffffffffffffffff168373ffffffffffffffffffffffffffffffffffffffff167f17307eab39ab6107e8899845ad3d59bd9653f200f220920489ca2b5937696c31836040516111289190612005565b60405180910390a3505050565b60008373ffffffffffffffffffffffffffffffffffffffff163b11156112df578273ffffffffffffffffffffffffffffffffffffffff1663150b7a02868685856040518563ffffffff1660e01b81526004016111949493929190612a8e565b6020604051808303816000875af19250505080156111d057506040513d601f19601f820116820180604052508101906111cd9190612aef565b60015b611254573d8060008114611200576040519150601f19603f3d011682016040523d82523d6000602084013e611205565b606091505b50600081510361124c57836040517f64a0ae920000000000000000000000000000000000000000000000000000000081526004016112439190612176565b60405180910390fd5b805160208201fd5b63150b7a0260e01b7bffffffffffffffffffffffffffffffffffffffffffffffffffffffff1916817bffffffffffffffffffffffffffffffffffffffffffffffffffffffff1916146112dd57836040517f64a0ae920000000000000000000000000000000000000000000000000000000081526004016112d49190612176565b60405180910390fd5b505b5050505050565b6060600c80546112f590612624565b80601f016020809104026020016040519081016040528092919081815260200182805461132190612624565b801561136e5780601f106113435761010080835404028352916020019161136e565b820191906000526020600020905b81548152906001019060200180831161135157829003601f168201915b5050505050905090565b60606000600161138784611b80565b01905060008167ffffffffffffffff8111156113a6576113a5612284565b5b6040519080825280601f01601f1916602001820160405280156113d85781602001600182028036833780820191505090505b509050600082602083010190505b60011561143b578080600190039150507f3031323334353637383961626364656600000000000000000000000000000000600a86061a8153600a858161142f5761142e612b1c565b5b049450600085036113e6575b819350505050919050565b60007f01ffc9a7000000000000000000000000000000000000000000000000000000007bffffffffffffffffffffffffffffffffffffffffffffffffffffffff1916827bffffffffffffffffffffffffffffffffffffffffffffffffffffffff1916149050919050565b60006002600083815260200190815260200160002060009054906101000a900473ffffffffffffffffffffffffffffffffffffffff169050919050565b80806115265750600073ffffffffffffffffffffffffffffffffffffffff168273ffffffffffffffffffffffffffffffffffffffff1614155b1561165a57600061153684610c5f565b9050600073ffffffffffffffffffffffffffffffffffffffff168373ffffffffffffffffffffffffffffffffffffffff16141580156115a157508273ffffffffffffffffffffffffffffffffffffffff168173ffffffffffffffffffffffffffffffffffffffff1614155b80156115b457506115b28184610a63565b155b156115f657826040517fa9fbf51f0000000000000000000000000000000000000000000000000000000081526004016115ed9190612176565b60405180910390fd5b811561165857838573ffffffffffffffffffffffffffffffffffffffff168273ffffffffffffffffffffffffffffffffffffffff167f8c5be1e5ebec7d5bd14f71427d1e84f3dd0314c0f7b2291e5b200ac8c7c3b92560405160405180910390a45b505b836004600085815260200190815260200160002060006101000a81548173ffffffffffffffffffffffffffffffffffffffff021916908373ffffffffffffffffffffffffffffffffffffffff16021790555050505050565b6000806116be846114b0565b9050600073ffffffffffffffffffffffffffffffffffffffff168373ffffffffffffffffffffffffffffffffffffffff1614611700576116ff818486611cd3565b5b600073ffffffffffffffffffffffffffffffffffffffff168173ffffffffffffffffffffffffffffffffffffffff1614611791576117426000856000806114ed565b6001600360008373ffffffffffffffffffffffffffffffffffffffff1673ffffffffffffffffffffffffffffffffffffffff168152602001908152602001600020600082825403925050819055505b600073ffffffffffffffffffffffffffffffffffffffff168573ffffffffffffffffffffffffffffffffffffffff1614611814576001600360008773ffffffffffffffffffffffffffffffffffffffff1673ffffffffffffffffffffffffffffffffffffffff168152602001908152602001600020600082825401925050819055505b846002600086815260200190815260200160002060006101000a81548173ffffffffffffffffffffffffffffffffffffffff021916908373ffffffffffffffffffffffffffffffffffffffff160217905550838573ffffffffffffffffffffffffffffffffffffffff168273ffffffffffffffffffffffffffffffffffffffff167fddf252ad1be2c89b69c2b068fc378daa952ba7f163c4a11628f55a4df523b3ef60405160405180910390a4809150509392505050565b6008805490506009600083815260200190815260200160002081905550600881908060018154018082558091505060019003906000526020600020016000909190919091505550565b60006119208361082f565b90506000600760008481526020019081526020016000205490506000600660008673ffffffffffffffffffffffffffffffffffffffff1673ffffffffffffffffffffffffffffffffffffffff16815260200190815260200160002090508282146119cc5760008160008581526020019081526020016000205490508082600085815260200190815260200160002081905550826007600083815260200190815260200160002081905550505b6007600085815260200190815260200160002060009055806000848152602001908152602001600020600090555050505050565b60006001600880549050611a149190612b4b565b9050600060096000848152602001908152602001600020549050600060088381548110611a4457611a436126b5565b5b906000526020600020015490508060088381548110611a6657611a656126b5565b5b906000526020600020018190555081600960008381526020019081526020016000208190555060096000858152602001908152602001600020600090556008805480611ab557611ab4612b7f565b5b6001900381819060005260206000200160009055905550505050565b60006001611ade8461082f565b611ae89190612b4b565b905081600660008573ffffffffffffffffffffffffffffffffffffffff1673ffffffffffffffffffffffffffffffffffffffff168152602001908152602001600020600083815260200190815260200160002081905550806007600084815260200190815260200160002081905550505050565b611b668383611d97565b611b7b611b71610d24565b6000858585611135565b505050565b600080600090507a184f03e93ff9f4daa797ed6e38ed64bf6a1f0100000000000000008310611bde577a184f03e93ff9f4daa797ed6e38ed64bf6a1f0100000000000000008381611bd457611bd3612b1c565b5b0492506040810190505b6d04ee2d6d415b85acef81000000008310611c1b576d04ee2d6d415b85acef81000000008381611c1157611c10612b1c565b5b0492506020810190505b662386f26fc100008310611c4a57662386f26fc100008381611c4057611c3f612b1c565b5b0492506010810190505b6305f5e1008310611c73576305f5e1008381611c6957611c68612b1c565b5b0492506008810190505b6127108310611c98576127108381611c8e57611c8d612b1c565b5b0492506004810190505b60648310611cbb5760648381611cb157611cb0612b1c565b5b0492506002810190505b600a8310611cca576001810190505b80915050919050565b611cde838383611e90565b611d9257600073ffffffffffffffffffffffffffffffffffffffff168373ffffffffffffffffffffffffffffffffffffffff1603611d5357806040517f7e273289000000000000000000000000000000000000000000000000000000008152600401611d4a919061220c565b60405180910390fd5b81816040517f177e802f000000000000000000000000000000000000000000000000000000008152600401611d8992919061268c565b60405180910390fd5b505050565b600073ffffffffffffffffffffffffffffffffffffffff168273ffffffffffffffffffffffffffffffffffffffff1603611e095760006040517f64a0ae92000000000000000000000000000000000000000000000000000000008152600401611e009190612176565b60405180910390fd5b6000611e1783836000610d3e565b9050600073ffffffffffffffffffffffffffffffffffffffff168173ffffffffffffffffffffffffffffffffffffffff1614611e8b5760006040517f73c6ac6e000000000000000000000000000000000000000000000000000000008152600401611e829190612176565b60405180910390fd5b505050565b60008073ffffffffffffffffffffffffffffffffffffffff168373ffffffffffffffffffffffffffffffffffffffff1614158015611f4857508273ffffffffffffffffffffffffffffffffffffffff168473ffffffffffffffffffffffffffffffffffffffff161480611f095750611f088484610a63565b5b80611f4757508273ffffffffffffffffffffffffffffffffffffffff16611f2f83610ce7565b73ffffffffffffffffffffffffffffffffffffffff16145b5b90509392505050565b6000604051905090565b600080fd5b600080fd5b60007fffffffff0000000000000000000000000000000000000000000000000000000082169050919050565b611f9a81611f65565b8114611fa557600080fd5b50565b600081359050611fb781611f91565b92915050565b600060208284031215611fd357611fd2611f5b565b5b6000611fe184828501611fa8565b91505092915050565b60008115159050919050565b611fff81611fea565b82525050565b600060208201905061201a6000830184611ff6565b92915050565b600081519050919050565b600082825260208201905092915050565b60005b8381101561205a57808201518184015260208101905061203f565b60008484015250505050565b6000601f19601f8301169050919050565b600061208282612020565b61208c818561202b565b935061209c81856020860161203c565b6120a581612066565b840191505092915050565b600060208201905081810360008301526120ca8184612077565b905092915050565b6000819050919050565b6120e5816120d2565b81146120f057600080fd5b50565b600081359050612102816120dc565b92915050565b60006020828403121561211e5761211d611f5b565b5b600061212c848285016120f3565b91505092915050565b600073ffffffffffffffffffffffffffffffffffffffff82169050919050565b600061216082612135565b9050919050565b61217081612155565b82525050565b600060208201905061218b6000830184612167565b92915050565b61219a81612155565b81146121a557600080fd5b50565b6000813590506121b781612191565b92915050565b600080604083850312156121d4576121d3611f5b565b5b60006121e2858286016121a8565b92505060206121f3858286016120f3565b9150509250929050565b612206816120d2565b82525050565b600060208201905061222160008301846121fd565b92915050565b6000806000606084860312156122405761223f611f5b565b5b600061224e868287016121a8565b935050602061225f868287016121a8565b9250506040612270868287016120f3565b9150509250925092565b600080fd5b600080fd5b7f4e487b7100000000000000000000000000000000000000000000000000000000600052604160045260246000fd5b6122bc82612066565b810181811067ffffffffffffffff821117156122db576122da612284565b5b80604052505050565b60006122ee611f51565b90506122fa82826122b3565b919050565b600067ffffffffffffffff82111561231a57612319612284565b5b61232382612066565b9050602081019050919050565b82818337600083830152505050565b600061235261234d846122ff565b6122e4565b90508281526020810184848401111561236e5761236d61227f565b5b612379848285612330565b509392505050565b600082601f8301126123965761239561227a565b5b81356123a684826020860161233f565b91505092915050565b6000602082840312156123c5576123c4611f5b565b5b600082013567ffffffffffffffff8111156123e3576123e2611f60565b5b6123ef84828501612381565b91505092915050565b60006020828403121561240e5761240d611f5b565b5b600061241c848285016121a8565b91505092915050565b61242e81611fea565b811461243957600080fd5b50565b60008135905061244b81612425565b92915050565b6000806040838503121561246857612467611f5b565b5b6000612476858286016121a8565b92505060206124878582860161243c565b9150509250929050565b600067ffffffffffffffff8211156124ac576124ab612284565b5b6124b582612066565b9050602081019050919050565b60006124d56124d084612491565b6122e4565b9050828152602081018484840111156124f1576124f061227f565b5b6124fc848285612330565b509392505050565b600082601f8301126125195761251861227a565b5b81356125298482602086016124c2565b91505092915050565b6000806000806080858703121561254c5761254b611f5b565b5b600061255a878288016121a8565b945050602061256b878288016121a8565b935050604061257c878288016120f3565b925050606085013567ffffffffffffffff81111561259d5761259c611f60565b5b6125a987828801612504565b91505092959194509250565b600080604083850312156125cc576125cb611f5b565b5b60006125da858286016121a8565b92505060206125eb858286016121a8565b9150509250929050565b7f4e487b7100000000000000000000000000000000000000000000000000000000600052602260045260246000fd5b6000600282049050600182168061263c57607f821691505b60208210810361264f5761264e6125f5565b5b50919050565b600060608201905061266a6000830186612167565b61267760208301856121fd565b6126846040830184612167565b949350505050565b60006040820190506126a16000830185612167565b6126ae60208301846121fd565b9392505050565b7f4e487b7100000000000000000000000000000000000000000000000000000000600052603260045260246000fd5b60008190508160005260206000209050919050565b60006020601f8301049050919050565b600082821b905092915050565b6000600883026127467fffffffffffffffffffffffffffffffffffffffffffffffffffffffffffffffff82612709565b6127508683612709565b95508019841693508086168417925050509392505050565b6000819050919050565b600061278d612788612783846120d2565b612768565b6120d2565b9050919050565b6000819050919050565b6127a783612772565b6127bb6127b382612794565b848454612716565b825550505050565b600090565b6127d06127c3565b6127db81848461279e565b505050565b5b818110156127ff576127f46000826127c8565b6001810190506127e1565b5050565b601f82111561284457612815816126e4565b61281e846126f9565b8101602085101561282d578190505b612841612839856126f9565b8301826127e0565b50505b505050565b600082821c905092915050565b600061286760001984600802612849565b1980831691505092915050565b60006128808383612856565b9150826002028217905092915050565b61289982612020565b67ffffffffffffffff8111156128b2576128b1612284565b5b6128bc8254612624565b6128c7828285612803565b600060209050601f8311600181146128fa57600084156128e8578287015190505b6128f28582612874565b86555061295a565b601f198416612908866126e4565b60005b828110156129305784890151825560018201915060208501945060208101905061290b565b8683101561294d5784890151612949601f891682612856565b8355505b6001600288020188555050505b505050505050565b7f4e487b7100000000000000000000000000000000000000000000000000000000600052601160045260246000fd5b600061299c826120d2565b91507fffffffffffffffffffffffffffffffffffffffffffffffffffffffffffffffff82036129ce576129cd612962565b5b600182019050919050565b600081905092915050565b60006129ef82612020565b6129f981856129d9565b9350612a0981856020860161203c565b80840191505092915050565b6000612a2182856129e4565b9150612a2d82846129e4565b91508190509392505050565b600081519050919050565b600082825260208201905092915050565b6000612a6082612a39565b612a6a8185612a44565b9350612a7a81856020860161203c565b612a8381612066565b840191505092915050565b6000608082019050612aa36000830187612167565b612ab06020830186612167565b612abd60408301856121fd565b8181036060830152612acf8184612a55565b905095945050505050565b600081519050612ae981611f91565b92915050565b600060208284031215612b0557612b04611f5b565b5b6000612b1384828501612ada565b91505092915050565b7f4e487b7100000000000000000000000000000000000000000000000000000000600052601260045260246000fd5b6000612b56826120d2565b9150612b61836120d2565b9250828203905081811115612b7957612b78612962565b5b92915050565b7f4e487b7100000000000000000000000000000000000000000000000000000000600052603160045260246000fdfea2646970667358221220e5be45f118fa3200861d5579e4efc2fe2b7a35c24d15d6afa45569d34eb3d59664736f6c634300081c0033",
  "linkReferences": {},
  "deployedLinkReferences": {}
}