{
  "_format": "hh-sol-artifact-1",
  "contractName": "SkullMarketplace",
  "sourceName": "contracts/SkullMarketplace.sol",
  "abi": [
    {
      "anonymous": false,
      "inputs": [
        {
          "indexed": true,
          "internalType": "address",
          "name": "nft",
          "type": "address"
        },
        {
          "indexed": true,
          "internalType": "uint256",
          "name": "tokenId",
          "type": "uint256"
        }
      ],
      "name": "Cancelled",
      "type": "event"
    },
    {
      "anonymous": false,
      "inputs": [
        {
          "indexed": true,
          "internalType": "address",
          "name": "nft",
          "type": "address"
        },
        {
          "indexed": true,
          "internalType": "uint256",
          "name": "tokenId",
          "type": "uint256"
        },
        {
          "indexed": false,
          "internalType": "address",
          "name": "seller",
          "type": "address"
        },
        {
          "indexed": false,
          "internalType": "uint256",
          "name": "price",
          "type": "uint256"
        }
      ],
      "name": "Listed",
      "type": "event"
    },
    {
      "anonymous": false,
      "inputs": [
        {
          "indexed": true,
          "internalType": "address",
          "name": "nft",
          "type": "address"
        },
        {
          "indexed": true,
          "internalType": "uint256",
          "name": "tokenId",
          "type": "uint256"
        },
        {
          "indexed": false,
          "internalType": "address",
          "name": "buyer",
          "type": "address"
        },
        {
          "indexed": false,
          "internalType": "uint256",
          "name": "price",
          "type": "uint256"
        }
      ],
      "name": "Sale",
      "type": "event"
    },
    {
      "inputs": [
        {
          "internalType": "address",
          "name": "nft",
          "type": "address"
        },
        {
          "internalType": "uint256",
          "name": "tokenId",
          "type": "uint256"
        }
      ],
      "name": "buyNFT",
      "outputs": [],
      "stateMutability": "payable",
      "type": "function"
    },
    {
      "inputs": [
        {
          "internalType": "address",
          "name": "nft",
          "type": "address"
        },
        {
          "internalType": "uint256",
          "name": "tokenId",
          "type": "uint256"
        }
      ],
      "name": "cancelListing",
      "outputs": [],
      "stateMutability": "nonpayable",
      "type": "function"
    },
    {
      "inputs": [
        {
          "internalType": "address",
          "name": "nft",
          "type": "address"
        },
        {
          "internalType": "uint256",
          "name": "tokenId",
          "type": "uint256"
        },
        {
          "internalType": "uint256",
          "name": "price",
          "type": "uint256"
        }
      ],
      "name": "listNFT",
      "outputs": [],
      "stateMutability": "nonpayable",
      "type": "function"
    },
    {
      "inputs": [
        {
          "internalType": "address",
          "name": "",
          "type": "address"
        },
        {
          "internalType": "uint256",
          "name": "",
          "type": "uint256"
        }
      ],
      "name": "listings",
      "outputs": [
        {
          "internalType": "address",
          "name": "seller",
          "type": "address"
        },
        {
          "internalType": "uint256",
          "name": "price",
          "type": "uint256"
        }
      ],
      "stateMutability": "view",
      "type": "function"
    }
  ],
  "bytecode": "0x6080604052348015600f57600080fd5b50610db68061001f6000396000f3fe60806040526004361061003e5760003560e01c806207df3014610043578063a82ba76f14610081578063ad05f1b41461009d578063b2ddee06146100c6575b600080fd5b34801561004f57600080fd5b5061006a600480360381019061006591906109e5565b6100ef565b604051610078929190610a43565b60405180910390f35b61009b600480360381019061009691906109e5565b610140565b005b3480156100a957600080fd5b506100c460048036038101906100bf9190610a6c565b610420565b005b3480156100d257600080fd5b506100ed60048036038101906100e891906109e5565b6106e3565b005b6000602052816000526040600020602052806000526040600020600091509150508060000160009054906101000a900473ffffffffffffffffffffffffffffffffffffffff16908060010154905082565b60008060008473ffffffffffffffffffffffffffffffffffffffff1673ffffffffffffffffffffffffffffffffffffffff16815260200190815260200160002060008381526020019081526020016000206040518060400160405290816000820160009054906101000a900473ffffffffffffffffffffffffffffffffffffffff1673ffffffffffffffffffffffffffffffffffffffff1673ffffffffffffffffffffffffffffffffffffffff16815260200160018201548152505090506000816020015111610245576040517f08c379a000000000000000000000000000000000000000000000000000000000815260040161023c90610b1c565b60405180910390fd5b8060200151341461028b576040517f08c379a000000000000000000000000000000000000000000000000000000000815260040161028290610b88565b60405180910390fd5b6000808473ffffffffffffffffffffffffffffffffffffffff1673ffffffffffffffffffffffffffffffffffffffff1681526020019081526020016000206000838152602001908152602001600020600080820160006101000a81549073ffffffffffffffffffffffffffffffffffffffff021916905560018201600090555050806000015173ffffffffffffffffffffffffffffffffffffffff166108fc349081150290604051600060405180830381858888f19350505050158015610356573d6000803e3d6000fd5b508273ffffffffffffffffffffffffffffffffffffffff166323b872dd3033856040518463ffffffff1660e01b815260040161039493929190610ba8565b600060405180830381600087803b1580156103ae57600080fd5b505af11580156103c2573d6000803e3d6000fd5b50505050818373ffffffffffffffffffffffffffffffffffffffff167f686fb6eb169cadc38afcea6d15c9b04b00e9a461889d6a280f21f5ffda48095d338460200151604051610413929190610a43565b60405180910390a3505050565b60008111610463576040517f08c379a000000000000000000000000000000000000000000000000000000000815260040161045a90610c2b565b60405180910390fd5b60008390503373ffffffffffffffffffffffffffffffffffffffff168173ffffffffffffffffffffffffffffffffffffffff16636352211e856040518263ffffffff1660e01b81526004016104b89190610c4b565b602060405180830381865afa1580156104d5573d6000803e3d6000fd5b505050506040513d601f19601f820116820180604052508101906104f99190610c7b565b73ffffffffffffffffffffffffffffffffffffffff161461054f576040517f08c379a000000000000000000000000000000000000000000000000000000000815260040161054690610cf4565b60405180910390fd5b8073ffffffffffffffffffffffffffffffffffffffff166323b872dd3330866040518463ffffffff1660e01b815260040161058c93929190610ba8565b600060405180830381600087803b1580156105a657600080fd5b505af11580156105ba573d6000803e3d6000fd5b5050505060405180604001604052803373ffffffffffffffffffffffffffffffffffffffff168152602001838152506000808673ffffffffffffffffffffffffffffffffffffffff1673ffffffffffffffffffffffffffffffffffffffff168152602001908152602001600020600085815260200190815260200160002060008201518160000160006101000a81548173ffffffffffffffffffffffffffffffffffffffff021916908373ffffffffffffffffffffffffffffffffffffffff16021790555060208201518160010155905050828473ffffffffffffffffffffffffffffffffffffffff167f8b06cda60618abf2b2d07227f9dd63ec6349ca3269ce0eb18d49122a48362ad833856040516106d5929190610a43565b60405180910390a350505050565b60008060008473ffffffffffffffffffffffffffffffffffffffff1673ffffffffffffffffffffffffffffffffffffffff16815260200190815260200160002060008381526020019081526020016000206040518060400160405290816000820160009054906101000a900473ffffffffffffffffffffffffffffffffffffffff1673ffffffffffffffffffffffffffffffffffffffff1673ffffffffffffffffffffffffffffffffffffffff16815260200160018201548152505090503373ffffffffffffffffffffffffffffffffffffffff16816000015173ffffffffffffffffffffffffffffffffffffffff1614610813576040517f08c379a000000000000000000000000000000000000000000000000000000000815260040161080a90610d60565b60405180910390fd5b6000808473ffffffffffffffffffffffffffffffffffffffff1673ffffffffffffffffffffffffffffffffffffffff1681526020019081526020016000206000838152602001908152602001600020600080820160006101000a81549073ffffffffffffffffffffffffffffffffffffffff0219169055600182016000905550508273ffffffffffffffffffffffffffffffffffffffff166323b872dd3033856040518463ffffffff1660e01b81526004016108d193929190610ba8565b600060405180830381600087803b1580156108eb57600080fd5b505af11580156108ff573d6000803e3d6000fd5b50505050818373ffffffffffffffffffffffffffffffffffffffff167f36ea5cd5608625e789af0282eecdb4eae1cb7c1cf6d0ec3f9a84f35be850260b60405160405180910390a3505050565b600080fd5b600073ffffffffffffffffffffffffffffffffffffffff82169050919050565b600061097c82610951565b9050919050565b61098c81610971565b811461099757600080fd5b50565b6000813590506109a981610983565b92915050565b6000819050919050565b6109c2816109af565b81146109cd57600080fd5b50565b6000813590506109df816109b9565b92915050565b600080604083850312156109fc576109fb61094c565b5b6000610a0a8582860161099a565b9250506020610a1b858286016109d0565b9150509250929050565b610a2e81610971565b82525050565b610a3d816109af565b82525050565b6000604082019050610a586000830185610a25565b610a656020830184610a34565b9392505050565b600080600060608486031215610a8557610a8461094c565b5b6000610a938682870161099a565b9350506020610aa4868287016109d0565b9250506040610ab5868287016109d0565b9150509250925092565b600082825260208201905092915050565b7f4e6f74206c697374656400000000000000000000000000000000000000000000600082015250565b6000610b06600a83610abf565b9150610b1182610ad0565b602082019050919050565b60006020820190508181036000830152610b3581610af9565b9050919050565b7f57726f6e67207072696365000000000000000000000000000000000000000000600082015250565b6000610b72600b83610abf565b9150610b7d82610b3c565b602082019050919050565b60006020820190508181036000830152610ba181610b65565b9050919050565b6000606082019050610bbd6000830186610a25565b610bca6020830185610a25565b610bd76040830184610a34565b949350505050565b7f5072696365206d757374206265203e2030000000000000000000000000000000600082015250565b6000610c15601183610abf565b9150610c2082610bdf565b602082019050919050565b60006020820190508181036000830152610c4481610c08565b9050919050565b6000602082019050610c606000830184610a34565b92915050565b600081519050610c7581610983565b92915050565b600060208284031215610c9157610c9061094c565b5b6000610c9f84828501610c66565b91505092915050565b7f4e6f74206f776e65720000000000000000000000000000000000000000000000600082015250565b6000610cde600983610abf565b9150610ce982610ca8565b602082019050919050565b60006020820190508181036000830152610d0d81610cd1565b9050919050565b7f4e6f742073656c6c657200000000000000000000000000000000000000000000600082015250565b6000610d4a600a83610abf565b9150610d5582610d14565b602082019050919050565b60006020820190508181036000830152610d7981610d3d565b905091905056fea2646970667358221220ba39aa56bed1a91632cd98a37fa78f10d98ee1de7806a89c2a763d5cdca5f85e64736f6c634300081c0033",
  "linkReferences": {},
  "deployedLinkReferences": {}
}