{
  "_format": "hh-sol-artifact-1",
  "contractName": "SkullCollectionNFT",
  "sourceName": "contracts/SkullCollectionNFT.sol",
  "abi": [
    {
      "inputs": [
        {
          "internalType": "string",
          "name": "name_",
          "type": "string"
        },
        {
          "internalType": "string",
          "name": "symbol_",
          "type": "string"
        },
        {
          "internalType": "string",
          "name": "baseURI_",
          "type": "string"
        },
        {
          "internalType": "address",
          "name": "marketplaceWallet_",
          "type": "address"
        }
      ],
      "stateMutability": "nonpayable",
      "type": "constructor"
    },
    {
      "inputs": [],
      "name": "ERC721EnumerableForbiddenBatchMint",
      "type": "error"
    },
    {
      "inputs": [
        {
          "internalType": "address",
          "name": "sender",
          "type": "address"
        },
        {
          "internalType": "uint256",
          "name": "tokenId",
          "type": "uint256"
        },
        {
          "internalType": "address",
          "name": "owner",
          "type": "address"
        }
      ],
      "name": "ERC721IncorrectOwner",
      "type": "error"
    },
    {
      "inputs": [
        {
          "internalType": "address",
          "name": "operator",
          "type": "address"
        },
        {
          "internalType": "uint256",
          "name": "tokenId",
          "type": "uint256"
        }
      ],
      "name": "ERC721InsufficientApproval",
      "type": "error"
    },
    {
      "inputs": [
        {
          "internalType": "address",
          "name": "approver",
          "type": "address"
        }
      ],
      "name": "ERC721InvalidApprover",
      "type": "error"
    },
    {
      "inputs": [
        {
          "internalType": "address",
          "name": "operator",
          "type": "address"
        }
      ],
      "name": "ERC721InvalidOperator",
      "type": "error"
    },
    {
      "inputs": [
        {
          "internalType": "address",
          "name": "owner",
          "type": "address"
        }
      ],
      "name": "ERC721InvalidOwner",
      "type": "error"
    },
    {
      "inputs": [
        {
          "internalType": "address",
          "name": "receiver",
          "type": "address"
        }
      ],
      "name": "ERC721InvalidReceiver",
      "type": "error"
    },
    {
      "inputs": [
        {
          "internalType": "address",
          "name": "sender",
          "type": "address"
        }
      ],
      "name": "ERC721InvalidSender",
      "type": "error"
    },
    {
      "inputs": [
        {
          "internalType": "uint256",
          "name": "tokenId",
          "type": "uint256"
        }
      ],
      "name": "ERC721NonexistentToken",
      "type": "error"
    },
    {
      "inputs": [
        {
          "internalType": "address",
          "name": "owner",
          "type": "address"
        },
        {
          "internalType": "uint256",
          "name": "index",
          "type": "uint256"
        }
      ],
      "name": "ERC721OutOfBoundsIndex",
      "type": "error"
    },
    {
      "inputs": [
        {
          "internalType": "address",
          "name": "owner",
          "type": "address"
        }
      ],
      "name": "OwnableInvalidOwner",
      "type": "error"
    },
    {
      "inputs": [
        {
          "internalType": "address",
          "name": "account",
          "type": "address"
        }
      ],
      "name": "OwnableUnauthorizedAccount",
      "type": "error"
    },
    {
      "inputs": [],
      "name": "ReentrancyGuardReentrantCall",
      "type": "error"
    },
    {
      "anonymous": false,
      "inputs": [
        {
          "indexed": true,
          "internalType": "address",
          "name": "owner",
          "type": "address"
        },
        {
          "indexed": true,
          "internalType": "address",
          "name": "approved",
          "type": "address"
        },
        {
          "indexed": true,
          "internalType": "uint256",
          "name": "tokenId",
          "type": "uint256"
        }
      ],
      "name": "Approval",
      "type": "event"
    },
    {
      "anonymous": false,
      "inputs": [
        {
          "indexed": true,
          "internalType": "address",
          "name": "owner",
          "type": "address"
        },
        {
          "indexed": true,
          "internalType": "address",
          "name": "operator",
          "type": "address"
        },
        {
          "indexed": false,
          "internalType": "bool",
          "name": "approved",
          "type": "bool"
        }
      ],
      "name": "ApprovalForAll",
      "type": "event"
    },
    {
      "anonymous": false,
      "inputs": [
        {
          "indexed": true,
          "internalType": "address",
          "name": "previousOwner",
          "type": "address"
        },
        {
          "indexed": true,
          "internalType": "address",
          "name": "newOwner",
          "type": "address"
        }
      ],
      "name": "OwnershipTransferred",
      "type": "event"
    },
    {
      "anonymous": false,
      "inputs": [
        {
          "indexed": true,
          "internalType": "address",
          "name": "from",
          "type": "address"
        },
        {
          "indexed": true,
          "internalType": "address",
          "name": "to",
          "type": "address"
        },
        {
          "indexed": true,
          "internalType": "uint256",
          "name": "tokenId",
          "type": "uint256"
        }
      ],
      "name": "Transfer",
      "type": "event"
    },
    {
      "inputs": [],
      "name": "MAX_SUPPLY",
      "outputs": [
        {
          "internalType": "uint256",
          "name": "",
          "type": "uint256"
        }
      ],
      "stateMutability": "view",
      "type": "function"
    },
    {
      "inputs": [],
      "name": "MINT_PRICE",
      "outputs": [
        {
          "internalType": "uint256",
          "name": "",
          "type": "uint256"
        }
      ],
      "stateMutability": "view",
      "type": "function"
    },
    {
      "inputs": [
        {
          "internalType": "address",
          "name": "to",
          "type": "address"
        },
        {
          "internalType": "uint256",
          "name": "tokenId",
          "type": "uint256"
        }
      ],
      "name": "approve",
      "outputs": [],
      "stateMutability": "nonpayable",
      "type": "function"
    },
    {
      "inputs": [
        {
          "internalType": "address",
          "name": "owner",
          "type": "address"
        }
      ],
      "name": "balanceOf",
      "outputs": [
        {
          "internalType": "uint256",
          "name": "",
          "type": "uint256"
        }
      ],
      "stateMutability": "view",
      "type": "function"
    },
    {
      "inputs": [
        {
          "internalType": "uint256",
          "name": "tokenId",
          "type": "uint256"
        }
      ],
      "name": "getApproved",
      "outputs": [
        {
          "internalType": "address",
          "name": "",
          "type": "address"
        }
      ],
      "stateMutability": "view",
      "type": "function"
    },
    {
      "inputs": [
        {
          "internalType": "address",
          "name": "owner",
          "type": "address"
        },
        {
          "internalType": "address",
          "name": "operator",
          "type": "address"
        }
      ],
      "name": "isApprovedForAll",
      "outputs": [
        {
          "internalType": "bool",
          "name": "",
          "type": "bool"
        }
      ],
      "stateMutability": "view",
      "type": "function"
    },
    {
      "inputs": [],
      "name": "marketplaceWallet",
      "outputs": [
        {
          "internalType": "address",
          "name": "",
          "type": "address"
        }
      ],
      "stateMutability": "view",
      "type": "function"
    },
    {
      "inputs": [
        {
          "internalType": "address",
          "name": "to",
          "type": "address"
        }
      ],
      "name": "mint",
      "outputs": [],
      "stateMutability": "payable",
      "type": "function"
    },
    {
      "inputs": [],
      "name": "name",
      "outputs": [
        {
          "internalType": "string",
          "name": "",
          "type": "string"
        }
      ],
      "stateMutability": "view",
      "type": "function"
    },
    {
      "inputs": [],
      "name": "nextTokenId",
      "outputs": [
        {
          "internalType": "uint256",
          "name": "",
          "type": "uint256"
        }
      ],
      "stateMutability": "view",
      "type": "function"
    },
    {
      "inputs": [],
      "name": "owner",
      "outputs": [
        {
          "internalType": "address",
          "name": "",
          "type": "address"
        }
      ],
      "stateMutability": "view",
      "type": "function"
    },
    {
      "inputs": [
        {
          "internalType": "uint256",
          "name": "tokenId",
          "type": "uint256"
        }
      ],
      "name": "ownerOf",
      "outputs": [
        {
          "internalType": "address",
          "name": "",
          "type": "address"
        }
      ],
      "stateMutability": "view",
      "type": "function"
    },
    {
      "inputs": [],
      "name": "renounceOwnership",
      "outputs": [],
      "stateMutability": "nonpayable",
      "type": "function"
    },
    {
      "inputs": [
        {
          "internalType": "address",
          "name": "from",
          "type": "address"
        },
        {
          "internalType": "address",
          "name": "to",
          "type": "address"
        },
        {
          "internalType": "uint256",
          "name": "tokenId",
          "type": "uint256"
        }
      ],
      "name": "safeTransferFrom",
      "outputs": [],
      "stateMutability": "nonpayable",
      "type": "function"
    },
    {
      "inputs": [
        {
          "internalType": "address",
          "name": "from",
          "type": "address"
        },
        {
          "internalType": "address",
          "name": "to",
          "type": "address"
        },
        {
          "internalType": "uint256",
          "name": "tokenId",
          "type": "uint256"
        },
        {
          "internalType": "bytes",
          "name": "data",
          "type": "bytes"
        }
      ],
      "name": "safeTransferFrom",
      "outputs": [],
      "stateMutability": "nonpayable",
      "type": "function"
    },
    {
      "inputs": [
        {
          "internalType": "address",
          "name": "operator",
          "type": "address"
        },
        {
          "internalType": "bool",
          "name": "approved",
          "type": "bool"
        }
      ],
      "name": "setApprovalForAll",
      "outputs": [],
      "stateMutability": "nonpayable",
      "type": "function"
    },
    {
      "inputs": [
        {
          "internalType": "string",
          "name": "newBaseURI",
          "type": "string"
        }
      ],
      "name": "setBaseURI",
      "outputs": [],
      "stateMutability": "nonpayable",
      "type": "function"
    },
    {
      "inputs": [
        {
          "internalType": "bytes4",
          "name": "interfaceId",
          "type": "bytes4"
        }
      ],
      "name": "supportsInterface",
      "outputs": [
        {
          "internalType": "bool",
          "name": "",
          "type": "bool"
        }
      ],
      "stateMutability": "view",
      "type": "function"
    },
    {
      "inputs": [],
      "name": "symbol",
      "outputs": [
        {
          "internalType": "string",
          "name": "",
          "type": "string"
        }
      ],
      "stateMutability": "view",
      "type": "function"
    },
    {
      "inputs": [
        {
          "internalType": "uint256",
          "name": "index",
          "type": "uint256"
        }
      ],
      "name": "tokenByIndex",
      "outputs": [
        {
          "internalType": "uint256",
          "name": "",
          "type": "uint256"
        }
      ],
      "stateMutability": "view",
      "type": "function"
    },
    {
      "inputs": [
        {
          "internalType": "address",
          "name": "owner",
          "type": "address"
        },
        {
          "internalType": "uint256",
          "name": "index",
          "type": "uint256"
        }
      ],
      "name": "tokenOfOwnerByIndex",
      "outputs": [
        {
          "internalType": "uint256",
          "name": "",
          "type": "uint256"
        }
      ],
      "stateMutability": "view",
      "type": "function"
    },
    {
      "inputs": [
        {
          "internalType": "uint256",
          "name": "tokenId",
          "type": "uint256"
        }
      ],
      "name": "tokenURI",
      "outputs": [
        {
          "internalType": "string",
          "name": "",
          "type": "string"
        }
      ],
      "stateMutability": "view",
      "type": "function"
    },
    {
      "inputs": [],
      "name": "totalSupply",
      "outputs": [
        {
          "internalType": "uint256",
          "name": "",
          "type": "uint256"
        }
      ],
      "stateMutability": "view",
      "type": "function"
    },
    {
      "inputs": [
        {
          "internalType": "address",
          "name": "from",
          "type": "address"
        },
        {
          "internalType": "address",
          "name": "to",
          "type": "address"
        },
        {
          "internalType": "uint256",
          "name": "tokenId",
          "type": "uint256"
        }
      ],
      "name": "transferFrom",
      "outputs": [],
      "stateMutability": "nonpayable",
      "type": "function"
    },
    {
      "inputs": [
        {
          "internalType": "address",
          "name": "newOwner",
          "type": "address"
        }
      ],
      "name": "transferOwnership",
      "outputs": [],
      "stateMutability": "nonpayable",
      "type": "function"
    }
  ],
  "bytecode": "0x608060405234801561001057600080fd5b506040516138ca3803806138ca833981810160405281019061003291906103d4565b338484816000908161004491906106b0565b50806001908161005491906106b0565b505050600073ffffffffffffffffffffffffffffffffffffffff168173ffffffffffffffffffffffffffffffffffffffff16036100c95760006040517f1e4fbdf70000000000000000000000000000000000000000000000000000000081526004016100c09190610791565b60405180910390fd5b6100d88161013b60201b60201c565b506001600b8190555081600d90816100f091906106b0565b5080600e60006101000a81548173ffffffffffffffffffffffffffffffffffffffff021916908373ffffffffffffffffffffffffffffffffffffffff160217905550505050506107ac565b6000600a60009054906101000a900473ffffffffffffffffffffffffffffffffffffffff16905081600a60006101000a81548173ffffffffffffffffffffffffffffffffffffffff021916908373ffffffffffffffffffffffffffffffffffffffff1602179055508173ffffffffffffffffffffffffffffffffffffffff168173ffffffffffffffffffffffffffffffffffffffff167f8be0079c531659141344cd1fd0a4f28419497f9722a3daafe3b4186f6b6457e060405160405180910390a35050565b6000604051905090565b600080fd5b600080fd5b600080fd5b600080fd5b6000601f19601f8301169050919050565b7f4e487b7100000000000000000000000000000000000000000000000000000000600052604160045260246000fd5b6102688261021f565b810181811067ffffffffffffffff8211171561028757610286610230565b5b80604052505050565b600061029a610201565b90506102a6828261025f565b919050565b600067ffffffffffffffff8211156102c6576102c5610230565b5b6102cf8261021f565b9050602081019050919050565b60005b838110156102fa5780820151818401526020810190506102df565b60008484015250505050565b6000610319610314846102ab565b610290565b9050828152602081018484840111156103355761033461021a565b5b6103408482856102dc565b509392505050565b600082601f83011261035d5761035c610215565b5b815161036d848260208601610306565b91505092915050565b600073ffffffffffffffffffffffffffffffffffffffff82169050919050565b60006103a182610376565b9050919050565b6103b181610396565b81146103bc57600080fd5b50565b6000815190506103ce816103a8565b92915050565b600080600080608085870312156103ee576103ed61020b565b5b600085015167ffffffffffffffff81111561040c5761040b610210565b5b61041887828801610348565b945050602085015167ffffffffffffffff81111561043957610438610210565b5b61044587828801610348565b935050604085015167ffffffffffffffff81111561046657610465610210565b5b61047287828801610348565b9250506060610483878288016103bf565b91505092959194509250565b600081519050919050565b7f4e487b7100000000000000000000000000000000000000000000000000000000600052602260045260246000fd5b600060028204905060018216806104e157607f821691505b6020821081036104f4576104f361049a565b5b50919050565b60008190508160005260206000209050919050565b60006020601f8301049050919050565b600082821b905092915050565b60006008830261055c7fffffffffffffffffffffffffffffffffffffffffffffffffffffffffffffffff8261051f565b610566868361051f565b95508019841693508086168417925050509392505050565b6000819050919050565b6000819050919050565b60006105ad6105a86105a38461057e565b610588565b61057e565b9050919050565b6000819050919050565b6105c783610592565b6105db6105d3826105b4565b84845461052c565b825550505050565b600090565b6105f06105e3565b6105fb8184846105be565b505050565b5b8181101561061f576106146000826105e8565b600181019050610601565b5050565b601f82111561066457610635816104fa565b61063e8461050f565b8101602085101561064d578190505b6106616106598561050f565b830182610600565b50505b505050565b600082821c905092915050565b600061068760001984600802610669565b1980831691505092915050565b60006106a08383610676565b9150826002028217905092915050565b6106b98261048f565b67ffffffffffffffff8111156106d2576106d1610230565b5b6106dc82546104c9565b6106e7828285610623565b600060209050601f83116001811461071a5760008415610708578287015190505b6107128582610694565b86555061077a565b601f198416610728866104fa565b60005b828110156107505784890151825560018201915060208501945060208101905061072b565b8683101561076d5784890151610769601f891682610676565b8355505b6001600288020188555050505b505050505050565b61078b81610396565b82525050565b60006020820190506107a66000830184610782565b92915050565b61310f806107bb6000396000f3fe6080604052600436106101665760003560e01c80636a627842116100d1578063a22cb4651161008a578063c87b56dd11610064578063c87b56dd1461052f578063e985e9c51461056c578063ed9ed696146105a9578063f2fde38b146105d457610166565b8063a22cb465146104b2578063b88d4fde146104db578063c002d23d1461050457610166565b80636a627842146103c157806370a08231146103dd578063715018a61461041a57806375794a3c146104315780638da5cb5b1461045c57806395d89b411461048757610166565b80632f745c59116101235780632f745c591461028d57806332cb6b0c146102ca57806342842e0e146102f55780634f6ccce71461031e57806355f804b31461035b5780636352211e1461038457610166565b806301ffc9a71461016b57806306fdde03146101a8578063081812fc146101d3578063095ea7b31461021057806318160ddd1461023957806323b872dd14610264575b600080fd5b34801561017757600080fd5b50610192600480360381019061018d919061235e565b6105fd565b60405161019f91906123a6565b60405180910390f35b3480156101b457600080fd5b506101bd610677565b6040516101ca9190612451565b60405180910390f35b3480156101df57600080fd5b506101fa60048036038101906101f591906124a9565b610709565b6040516102079190612517565b60405180910390f35b34801561021c57600080fd5b506102376004803603810190610232919061255e565b610725565b005b34801561024557600080fd5b5061024e61073b565b60405161025b91906125ad565b60405180910390f35b34801561027057600080fd5b5061028b600480360381019061028691906125c8565b610748565b005b34801561029957600080fd5b506102b460048036038101906102af919061255e565b61084a565b6040516102c191906125ad565b60405180910390f35b3480156102d657600080fd5b506102df6108f3565b6040516102ec91906125ad565b60405180910390f35b34801561030157600080fd5b5061031c600480360381019061031791906125c8565b6108f9565b005b34801561032a57600080fd5b50610345600480360381019061034091906124a9565b610919565b60405161035291906125ad565b60405180910390f35b34801561036757600080fd5b50610382600480360381019061037d9190612750565b61098f565b005b34801561039057600080fd5b506103ab60048036038101906103a691906124a9565b6109aa565b6040516103b89190612517565b60405180910390f35b6103db60048036038101906103d69190612799565b6109bc565b005b3480156103e957600080fd5b5061040460048036038101906103ff9190612799565b610b50565b60405161041191906125ad565b60405180910390f35b34801561042657600080fd5b5061042f610c0a565b005b34801561043d57600080fd5b50610446610c1e565b60405161045391906125ad565b60405180910390f35b34801561046857600080fd5b50610471610c24565b60405161047e9190612517565b60405180910390f35b34801561049357600080fd5b5061049c610c4e565b6040516104a99190612451565b60405180910390f35b3480156104be57600080fd5b506104d960048036038101906104d491906127f2565b610ce0565b005b3480156104e757600080fd5b5061050260048036038101906104fd91906128d3565b610cf6565b005b34801561051057600080fd5b50610519610d1b565b60405161052691906125ad565b60405180910390f35b34801561053b57600080fd5b50610556600480360381019061055191906124a9565b610d25565b6040516105639190612451565b60405180910390f35b34801561057857600080fd5b50610593600480360381019061058e9190612956565b610d8e565b6040516105a091906123a6565b60405180910390f35b3480156105b557600080fd5b506105be610e22565b6040516105cb9190612517565b60405180910390f35b3480156105e057600080fd5b506105fb60048036038101906105f69190612799565b610e48565b005b60007f780e9d63000000000000000000000000000000000000000000000000000000007bffffffffffffffffffffffffffffffffffffffffffffffffffffffff1916827bffffffffffffffffffffffffffffffffffffffffffffffffffffffff19161480610670575061066f82610ece565b5b9050919050565b606060008054610686906129c5565b80601f01602080910402602001604051908101604052809291908181526020018280546106b2906129c5565b80156106ff5780601f106106d4576101008083540402835291602001916106ff565b820191906000526020600020905b8154815290600101906020018083116106e257829003601f168201915b5050505050905090565b600061071482610fb0565b5061071e82611038565b9050919050565b6107378282610732611075565b61107d565b5050565b6000600880549050905090565b600073ffffffffffffffffffffffffffffffffffffffff168273ffffffffffffffffffffffffffffffffffffffff16036107ba5760006040517f64a0ae920000000000000000000000000000000000000000000000000000000081526004016107b19190612517565b60405180910390fd5b60006107ce83836107c9611075565b61108f565b90508373ffffffffffffffffffffffffffffffffffffffff168173ffffffffffffffffffffffffffffffffffffffff1614610844578382826040517f64283d7b00000000000000000000000000000000000000000000000000000000815260040161083b939291906129f6565b60405180910390fd5b50505050565b600061085583610b50565b821061089a5782826040517fa57d13dc000000000000000000000000000000000000000000000000000000008152600401610891929190612a2d565b60405180910390fd5b600660008473ffffffffffffffffffffffffffffffffffffffff1673ffffffffffffffffffffffffffffffffffffffff168152602001908152602001600020600083815260200190815260200160002054905092915050565b6103e881565b61091483838360405180602001604052806000815250610cf6565b505050565b600061092361073b565b8210610969576000826040517fa57d13dc000000000000000000000000000000000000000000000000000000008152600401610960929190612a2d565b60405180910390fd5b6008828154811061097d5761097c612a56565b5b90600052602060002001549050919050565b6109976111ac565b80600d90816109a69190612c31565b5050565b60006109b582610fb0565b9050919050565b6109c4611233565b655af3107a40003414610a0c576040517f08c379a0000000000000000000000000000000000000000000000000000000008152600401610a0390612d4f565b60405180910390fd5b6103e8600c5410610a52576040517f08c379a0000000000000000000000000000000000000000000000000000000008152600401610a4990612dbb565b60405180910390fd5b610a5e81600c54611279565b600c6000815480929190610a7190612e0a565b91905055506000600e60009054906101000a900473ffffffffffffffffffffffffffffffffffffffff1673ffffffffffffffffffffffffffffffffffffffff1634604051610abe90612e83565b60006040518083038185875af1925050503d8060008114610afb576040519150601f19603f3d011682016040523d82523d6000602084013e610b00565b606091505b5050905080610b44576040517f08c379a0000000000000000000000000000000000000000000000000000000008152600401610b3b90612ee4565b60405180910390fd5b50610b4d611297565b50565b60008073ffffffffffffffffffffffffffffffffffffffff168273ffffffffffffffffffffffffffffffffffffffff1603610bc35760006040517f89c62b64000000000000000000000000000000000000000000000000000000008152600401610bba9190612517565b60405180910390fd5b600360008373ffffffffffffffffffffffffffffffffffffffff1673ffffffffffffffffffffffffffffffffffffffff168152602001908152602001600020549050919050565b610c126111ac565b610c1c60006112a1565b565b600c5481565b6000600a60009054906101000a900473ffffffffffffffffffffffffffffffffffffffff16905090565b606060018054610c5d906129c5565b80601f0160208091040260200160405190810160405280929190818152602001828054610c89906129c5565b8015610cd65780601f10610cab57610100808354040283529160200191610cd6565b820191906000526020600020905b815481529060010190602001808311610cb957829003601f168201915b5050505050905090565b610cf2610ceb611075565b8383611367565b5050565b610d01848484610748565b610d15610d0c611075565b858585856114d6565b50505050565b655af3107a400081565b6060610d3082610fb0565b506000610d3b611687565b90506000815111610d5b5760405180602001604052806000815250610d86565b80610d6584611719565b604051602001610d76929190612f40565b6040516020818303038152906040525b915050919050565b6000600560008473ffffffffffffffffffffffffffffffffffffffff1673ffffffffffffffffffffffffffffffffffffffff16815260200190815260200160002060008373ffffffffffffffffffffffffffffffffffffffff1673ffffffffffffffffffffffffffffffffffffffff16815260200190815260200160002060009054906101000a900460ff16905092915050565b600e60009054906101000a900473ffffffffffffffffffffffffffffffffffffffff1681565b610e506111ac565b600073ffffffffffffffffffffffffffffffffffffffff168173ffffffffffffffffffffffffffffffffffffffff1603610ec25760006040517f1e4fbdf7000000000000000000000000000000000000000000000000000000008152600401610eb99190612517565b60405180910390fd5b610ecb816112a1565b50565b60007f80ac58cd000000000000000000000000000000000000000000000000000000007bffffffffffffffffffffffffffffffffffffffffffffffffffffffff1916827bffffffffffffffffffffffffffffffffffffffffffffffffffffffff19161480610f9957507f5b5e139f000000000000000000000000000000000000000000000000000000007bffffffffffffffffffffffffffffffffffffffffffffffffffffffff1916827bffffffffffffffffffffffffffffffffffffffffffffffffffffffff1916145b80610fa95750610fa8826117e7565b5b9050919050565b600080610fbc83611851565b9050600073ffffffffffffffffffffffffffffffffffffffff168173ffffffffffffffffffffffffffffffffffffffff160361102f57826040517f7e27328900000000000000000000000000000000000000000000000000000000815260040161102691906125ad565b60405180910390fd5b80915050919050565b60006004600083815260200190815260200160002060009054906101000a900473ffffffffffffffffffffffffffffffffffffffff169050919050565b600033905090565b61108a838383600161188e565b505050565b60008061109d858585611a53565b9050600073ffffffffffffffffffffffffffffffffffffffff168173ffffffffffffffffffffffffffffffffffffffff16036110e1576110dc84611c6d565b611120565b8473ffffffffffffffffffffffffffffffffffffffff168173ffffffffffffffffffffffffffffffffffffffff161461111f5761111e8185611cb6565b5b5b600073ffffffffffffffffffffffffffffffffffffffff168573ffffffffffffffffffffffffffffffffffffffff16036111625761115d84611da1565b6111a1565b8473ffffffffffffffffffffffffffffffffffffffff168173ffffffffffffffffffffffffffffffffffffffff16146111a05761119f8585611e72565b5b5b809150509392505050565b6111b4611075565b73ffffffffffffffffffffffffffffffffffffffff166111d2610c24565b73ffffffffffffffffffffffffffffffffffffffff1614611231576111f5611075565b6040517f118cdaa70000000000000000000000000000000000000000000000000000000081526004016112289190612517565b60405180910390fd5b565b6002600b540361126f576040517f3ee5aeb500000000000000000000000000000000000000000000000000000000815260040160405180910390fd5b6002600b81905550565b611293828260405180602001604052806000815250611efd565b5050565b6001600b81905550565b6000600a60009054906101000a900473ffffffffffffffffffffffffffffffffffffffff16905081600a60006101000a81548173ffffffffffffffffffffffffffffffffffffffff021916908373ffffffffffffffffffffffffffffffffffffffff1602179055508173ffffffffffffffffffffffffffffffffffffffff168173ffffffffffffffffffffffffffffffffffffffff167f8be0079c531659141344cd1fd0a4f28419497f9722a3daafe3b4186f6b6457e060405160405180910390a35050565b600073ffffffffffffffffffffffffffffffffffffffff168273ffffffffffffffffffffffffffffffffffffffff16036113d857816040517f5b08ba180000000000000000000000000000000000000000000000000000000081526004016113cf9190612517565b60405180910390fd5b80600560008573ffffffffffffffffffffffffffffffffffffffff1673ffffffffffffffffffffffffffffffffffffffff16815260200190815260200160002060008473ffffffffffffffffffffffffffffffffffffffff1673ffffffffffffffffffffffffffffffffffffffff16815260200190815260200160002060006101000a81548160ff0219169083151502179055508173ffffffffffffffffffffffffffffffffffffffff168373ffffffffffffffffffffffffffffffffffffffff167f17307eab39ab6107e8899845ad3d59bd9653f200f220920489ca2b5937696c31836040516114c991906123a6565b60405180910390a3505050565b60008373ffffffffffffffffffffffffffffffffffffffff163b1115611680578273ffffffffffffffffffffffffffffffffffffffff1663150b7a02868685856040518563ffffffff1660e01b81526004016115359493929190612fb9565b6020604051808303816000875af192505050801561157157506040513d601f19601f8201168201806040525081019061156e919061301a565b60015b6115f5573d80600081146115a1576040519150601f19603f3d011682016040523d82523d6000602084013e6115a6565b606091505b5060008151036115ed57836040517f64a0ae920000000000000000000000000000000000000000000000000000000081526004016115e49190612517565b60405180910390fd5b805160208201fd5b63150b7a0260e01b7bffffffffffffffffffffffffffffffffffffffffffffffffffffffff1916817bffffffffffffffffffffffffffffffffffffffffffffffffffffffff19161461167e57836040517f64a0ae920000000000000000000000000000000000000000000000000000000081526004016116759190612517565b60405180910390fd5b505b5050505050565b6060600d8054611696906129c5565b80601f01602080910402602001604051908101604052809291908181526020018280546116c2906129c5565b801561170f5780601f106116e45761010080835404028352916020019161170f565b820191906000526020600020905b8154815290600101906020018083116116f257829003601f168201915b5050505050905090565b60606000600161172884611f21565b01905060008167ffffffffffffffff81111561174757611746612625565b5b6040519080825280601f01601f1916602001820160405280156117795781602001600182028036833780820191505090505b509050600082602083010190505b6001156117dc578080600190039150507f3031323334353637383961626364656600000000000000000000000000000000600a86061a8153600a85816117d0576117cf613047565b5b04945060008503611787575b819350505050919050565b60007f01ffc9a7000000000000000000000000000000000000000000000000000000007bffffffffffffffffffffffffffffffffffffffffffffffffffffffff1916827bffffffffffffffffffffffffffffffffffffffffffffffffffffffff1916149050919050565b60006002600083815260200190815260200160002060009054906101000a900473ffffffffffffffffffffffffffffffffffffffff169050919050565b80806118c75750600073ffffffffffffffffffffffffffffffffffffffff168273ffffffffffffffffffffffffffffffffffffffff1614155b156119fb5760006118d784610fb0565b9050600073ffffffffffffffffffffffffffffffffffffffff168373ffffffffffffffffffffffffffffffffffffffff161415801561194257508273ffffffffffffffffffffffffffffffffffffffff168173ffffffffffffffffffffffffffffffffffffffff1614155b801561195557506119538184610d8e565b155b1561199757826040517fa9fbf51f00000000000000000000000000000000000000000000000000000000815260040161198e9190612517565b60405180910390fd5b81156119f957838573ffffffffffffffffffffffffffffffffffffffff168273ffffffffffffffffffffffffffffffffffffffff167f8c5be1e5ebec7d5bd14f71427d1e84f3dd0314c0f7b2291e5b200ac8c7c3b92560405160405180910390a45b505b836004600085815260200190815260200160002060006101000a81548173ffffffffffffffffffffffffffffffffffffffff021916908373ffffffffffffffffffffffffffffffffffffffff16021790555050505050565b600080611a5f84611851565b9050600073ffffffffffffffffffffffffffffffffffffffff168373ffffffffffffffffffffffffffffffffffffffff1614611aa157611aa0818486612074565b5b600073ffffffffffffffffffffffffffffffffffffffff168173ffffffffffffffffffffffffffffffffffffffff1614611b3257611ae360008560008061188e565b6001600360008373ffffffffffffffffffffffffffffffffffffffff1673ffffffffffffffffffffffffffffffffffffffff168152602001908152602001600020600082825403925050819055505b600073ffffffffffffffffffffffffffffffffffffffff168573ffffffffffffffffffffffffffffffffffffffff1614611bb5576001600360008773ffffffffffffffffffffffffffffffffffffffff1673ffffffffffffffffffffffffffffffffffffffff168152602001908152602001600020600082825401925050819055505b846002600086815260200190815260200160002060006101000a81548173ffffffffffffffffffffffffffffffffffffffff021916908373ffffffffffffffffffffffffffffffffffffffff160217905550838573ffffffffffffffffffffffffffffffffffffffff168273ffffffffffffffffffffffffffffffffffffffff167fddf252ad1be2c89b69c2b068fc378daa952ba7f163c4a11628f55a4df523b3ef60405160405180910390a4809150509392505050565b6008805490506009600083815260200190815260200160002081905550600881908060018154018082558091505060019003906000526020600020016000909190919091505550565b6000611cc183610b50565b90506000600760008481526020019081526020016000205490506000600660008673ffffffffffffffffffffffffffffffffffffffff1673ffffffffffffffffffffffffffffffffffffffff1681526020019081526020016000209050828214611d6d5760008160008581526020019081526020016000205490508082600085815260200190815260200160002081905550826007600083815260200190815260200160002081905550505b6007600085815260200190815260200160002060009055806000848152602001908152602001600020600090555050505050565b60006001600880549050611db59190613076565b9050600060096000848152602001908152602001600020549050600060088381548110611de557611de4612a56565b5b906000526020600020015490508060088381548110611e0757611e06612a56565b5b906000526020600020018190555081600960008381526020019081526020016000208190555060096000858152602001908152602001600020600090556008805480611e5657611e556130aa565b5b6001900381819060005260206000200160009055905550505050565b60006001611e7f84610b50565b611e899190613076565b905081600660008573ffffffffffffffffffffffffffffffffffffffff1673ffffffffffffffffffffffffffffffffffffffff168152602001908152602001600020600083815260200190815260200160002081905550806007600084815260200190815260200160002081905550505050565b611f078383612138565b611f1c611f12611075565b60008585856114d6565b505050565b600080600090507a184f03e93ff9f4daa797ed6e38ed64bf6a1f0100000000000000008310611f7f577a184f03e93ff9f4daa797ed6e38ed64bf6a1f0100000000000000008381611f7557611f74613047565b5b0492506040810190505b6d04ee2d6d415b85acef81000000008310611fbc576d04ee2d6d415b85acef81000000008381611fb257611fb1613047565b5b0492506020810190505b662386f26fc100008310611feb57662386f26fc100008381611fe157611fe0613047565b5b0492506010810190505b6305f5e1008310612014576305f5e100838161200a57612009613047565b5b0492506008810190505b612710831061203957612710838161202f5761202e613047565b5b0492506004810190505b6064831061205c576064838161205257612051613047565b5b0492506002810190505b600a831061206b576001810190505b80915050919050565b61207f838383612231565b61213357600073ffffffffffffffffffffffffffffffffffffffff168373ffffffffffffffffffffffffffffffffffffffff16036120f457806040517f7e2732890000000000000000000000000000000000000000000000000000000081526004016120eb91906125ad565b60405180910390fd5b81816040517f177e802f00000000000000000000000000000000000000000000000000000000815260040161212a929190612a2d565b60405180910390fd5b505050565b600073ffffffffffffffffffffffffffffffffffffffff168273ffffffffffffffffffffffffffffffffffffffff16036121aa5760006040517f64a0ae920000000000000000000000000000000000000000000000000000000081526004016121a19190612517565b60405180910390fd5b60006121b88383600061108f565b9050600073ffffffffffffffffffffffffffffffffffffffff168173ffffffffffffffffffffffffffffffffffffffff161461222c5760006040517f73c6ac6e0000000000000000000000000000000000000000000000000000000081526004016122239190612517565b60405180910390fd5b505050565b60008073ffffffffffffffffffffffffffffffffffffffff168373ffffffffffffffffffffffffffffffffffffffff16141580156122e957508273ffffffffffffffffffffffffffffffffffffffff168473ffffffffffffffffffffffffffffffffffffffff1614806122aa57506122a98484610d8e565b5b806122e857508273ffffffffffffffffffffffffffffffffffffffff166122d083611038565b73ffffffffffffffffffffffffffffffffffffffff16145b5b90509392505050565b6000604051905090565b600080fd5b600080fd5b60007fffffffff0000000000000000000000000000000000000000000000000000000082169050919050565b61233b81612306565b811461234657600080fd5b50565b60008135905061235881612332565b92915050565b600060208284031215612374576123736122fc565b5b600061238284828501612349565b91505092915050565b60008115159050919050565b6123a08161238b565b82525050565b60006020820190506123bb6000830184612397565b92915050565b600081519050919050565b600082825260208201905092915050565b60005b838110156123fb5780820151818401526020810190506123e0565b60008484015250505050565b6000601f19601f8301169050919050565b6000612423826123c1565b61242d81856123cc565b935061243d8185602086016123dd565b61244681612407565b840191505092915050565b6000602082019050818103600083015261246b8184612418565b905092915050565b6000819050919050565b61248681612473565b811461249157600080fd5b50565b6000813590506124a38161247d565b92915050565b6000602082840312156124bf576124be6122fc565b5b60006124cd84828501612494565b91505092915050565b600073ffffffffffffffffffffffffffffffffffffffff82169050919050565b6000612501826124d6565b9050919050565b612511816124f6565b82525050565b600060208201905061252c6000830184612508565b92915050565b61253b816124f6565b811461254657600080fd5b50565b60008135905061255881612532565b92915050565b60008060408385031215612575576125746122fc565b5b600061258385828601612549565b925050602061259485828601612494565b9150509250929050565b6125a781612473565b82525050565b60006020820190506125c2600083018461259e565b92915050565b6000806000606084860312156125e1576125e06122fc565b5b60006125ef86828701612549565b935050602061260086828701612549565b925050604061261186828701612494565b9150509250925092565b600080fd5b600080fd5b7f4e487b7100000000000000000000000000000000000000000000000000000000600052604160045260246000fd5b61265d82612407565b810181811067ffffffffffffffff8211171561267c5761267b612625565b5b80604052505050565b600061268f6122f2565b905061269b8282612654565b919050565b600067ffffffffffffffff8211156126bb576126ba612625565b5b6126c482612407565b9050602081019050919050565b82818337600083830152505050565b60006126f36126ee846126a0565b612685565b90508281526020810184848401111561270f5761270e612620565b5b61271a8482856126d1565b509392505050565b600082601f8301126127375761273661261b565b5b81356127478482602086016126e0565b91505092915050565b600060208284031215612766576127656122fc565b5b600082013567ffffffffffffffff81111561278457612783612301565b5b61279084828501612722565b91505092915050565b6000602082840312156127af576127ae6122fc565b5b60006127bd84828501612549565b91505092915050565b6127cf8161238b565b81146127da57600080fd5b50565b6000813590506127ec816127c6565b92915050565b60008060408385031215612809576128086122fc565b5b600061281785828601612549565b9250506020612828858286016127dd565b9150509250929050565b600067ffffffffffffffff82111561284d5761284c612625565b5b61285682612407565b9050602081019050919050565b600061287661287184612832565b612685565b90508281526020810184848401111561289257612891612620565b5b61289d8482856126d1565b509392505050565b600082601f8301126128ba576128b961261b565b5b81356128ca848260208601612863565b91505092915050565b600080600080608085870312156128ed576128ec6122fc565b5b60006128fb87828801612549565b945050602061290c87828801612549565b935050604061291d87828801612494565b925050606085013567ffffffffffffffff81111561293e5761293d612301565b5b61294a878288016128a5565b91505092959194509250565b6000806040838503121561296d5761296c6122fc565b5b600061297b85828601612549565b925050602061298c85828601612549565b9150509250929050565b7f4e487b7100000000000000000000000000000000000000000000000000000000600052602260045260246000fd5b600060028204905060018216806129dd57607f821691505b6020821081036129f0576129ef612996565b5b50919050565b6000606082019050612a0b6000830186612508565b612a18602083018561259e565b612a256040830184612508565b949350505050565b6000604082019050612a426000830185612508565b612a4f602083018461259e565b9392505050565b7f4e487b7100000000000000000000000000000000000000000000000000000000600052603260045260246000fd5b60008190508160005260206000209050919050565b60006020601f8301049050919050565b600082821b905092915050565b600060088302612ae77fffffffffffffffffffffffffffffffffffffffffffffffffffffffffffffffff82612aaa565b612af18683612aaa565b95508019841693508086168417925050509392505050565b6000819050919050565b6000612b2e612b29612b2484612473565b612b09565b612473565b9050919050565b6000819050919050565b612b4883612b13565b612b5c612b5482612b35565b848454612ab7565b825550505050565b600090565b612b71612b64565b612b7c818484612b3f565b505050565b5b81811015612ba057612b95600082612b69565b600181019050612b82565b5050565b601f821115612be557612bb681612a85565b612bbf84612a9a565b81016020851015612bce578190505b612be2612bda85612a9a565b830182612b81565b50505b505050565b600082821c905092915050565b6000612c0860001984600802612bea565b1980831691505092915050565b6000612c218383612bf7565b9150826002028217905092915050565b612c3a826123c1565b67ffffffffffffffff811115612c5357612c52612625565b5b612c5d82546129c5565b612c68828285612ba4565b600060209050601f831160018114612c9b5760008415612c89578287015190505b612c938582612c15565b865550612cfb565b601f198416612ca986612a85565b60005b82811015612cd157848901518255600182019150602085019450602081019050612cac565b86831015612cee5784890151612cea601f891682612bf7565b8355505b6001600288020188555050505b505050505050565b7f496e636f72726563742045544820616d6f756e74000000000000000000000000600082015250565b6000612d396014836123cc565b9150612d4482612d03565b602082019050919050565b60006020820190508181036000830152612d6881612d2c565b9050919050565b7f4d617820737570706c7920726561636865640000000000000000000000000000600082015250565b6000612da56012836123cc565b9150612db082612d6f565b602082019050919050565b60006020820190508181036000830152612dd481612d98565b9050919050565b7f4e487b7100000000000000000000000000000000000000000000000000000000600052601160045260246000fd5b6000612e1582612473565b91507fffffffffffffffffffffffffffffffffffffffffffffffffffffffffffffffff8203612e4757612e46612ddb565b5b600182019050919050565b600081905092915050565b50565b6000612e6d600083612e52565b9150612e7882612e5d565b600082019050919050565b6000612e8e82612e60565b9150819050919050565b7f455448207472616e73666572206661696c656400000000000000000000000000600082015250565b6000612ece6013836123cc565b9150612ed982612e98565b602082019050919050565b60006020820190508181036000830152612efd81612ec1565b9050919050565b600081905092915050565b6000612f1a826123c1565b612f248185612f04565b9350612f348185602086016123dd565b80840191505092915050565b6000612f4c8285612f0f565b9150612f588284612f0f565b91508190509392505050565b600081519050919050565b600082825260208201905092915050565b6000612f8b82612f64565b612f958185612f6f565b9350612fa58185602086016123dd565b612fae81612407565b840191505092915050565b6000608082019050612fce6000830187612508565b612fdb6020830186612508565b612fe8604083018561259e565b8181036060830152612ffa8184612f80565b905095945050505050565b60008151905061301481612332565b92915050565b6000602082840312156130305761302f6122fc565b5b600061303e84828501613005565b91505092915050565b7f4e487b7100000000000000000000000000000000000000000000000000000000600052601260045260246000fd5b600061308182612473565b915061308c83612473565b92508282039050818111156130a4576130a3612ddb565b5b92915050565b7f4e487b7100000000000000000000000000000000000000000000000000000000600052603160045260246000fdfea2646970667358221220b8d3c77f406decd78819d84150cf23ff2a58cf24633dfd00b9baef4a89b3a2c864736f6c634300081c0033",
  "linkReferences": {},
  "deployedLinkReferences": {}
}